{
  "_format": "hh-sol-artifact-1",
  "contractName": "Ballot",
  "sourceName": "contracts/Ballot.sol",
  "abi": [
    {
      "inputs": [
        {
          "internalType": "string",
          "name": "_name",
          "type": "string"
        },
        {
          "internalType": "uint256",
          "name": "durationMinutes",
          "type": "uint256"
        }
      ],
      "stateMutability": "nonpayable",
      "type": "constructor"
    },
    {
      "anonymous": false,
      "inputs": [
        {
          "indexed": false,
          "internalType": "string",
          "name": "name",
          "type": "string"
        },
        {
          "indexed": false,
          "internalType": "uint256",
          "name": "voteCount",
          "type": "uint256"
        }
      ],
      "name": "ElectionResult",
      "type": "event"
    },
    {
      "inputs": [
        {
          "internalType": "string",
          "name": "_name",
          "type": "string"
        }
      ],
      "name": "addCandidate",
      "outputs": [],
      "stateMutability": "nonpayable",
      "type": "function"
    },
    {
      "inputs": [],
      "name": "auctionEnd",
      "outputs": [
        {
          "internalType": "uint256",
          "name": "",
          "type": "uint256"
        }
      ],
      "stateMutability": "view",
      "type": "function"
    },
    {
      "inputs": [
        {
          "internalType": "address",
          "name": "_person",
          "type": "address"
        }
      ],
      "name": "authorize",
      "outputs": [],
      "stateMutability": "nonpayable",
      "type": "function"
    },
    {
      "inputs": [
        {
          "internalType": "uint256",
          "name": "",
          "type": "uint256"
        }
      ],
      "name": "candidates",
      "outputs": [
        {
          "internalType": "string",
          "name": "name",
          "type": "string"
        },
        {
          "internalType": "uint256",
          "name": "voteCount",
          "type": "uint256"
        }
      ],
      "stateMutability": "view",
      "type": "function"
    },
    {
      "inputs": [],
      "name": "electionName",
      "outputs": [
        {
          "internalType": "string",
          "name": "",
          "type": "string"
        }
      ],
      "stateMutability": "view",
      "type": "function"
    },
    {
      "inputs": [],
      "name": "endElection",
      "outputs": [],
      "stateMutability": "nonpayable",
      "type": "function"
    },
    {
      "inputs": [],
      "name": "getAllCandidates",
      "outputs": [
        {
          "components": [
            {
              "internalType": "string",
              "name": "name",
              "type": "string"
            },
            {
              "internalType": "uint256",
              "name": "voteCount",
              "type": "uint256"
            }
          ],
          "internalType": "struct Ballot.Candidate[]",
          "name": "",
          "type": "tuple[]"
        }
      ],
      "stateMutability": "view",
      "type": "function"
    },
    {
      "inputs": [],
      "name": "getAuctionEnd",
      "outputs": [
        {
          "internalType": "uint256",
          "name": "",
          "type": "uint256"
        }
      ],
      "stateMutability": "view",
      "type": "function"
    },
    {
      "inputs": [],
      "name": "getElectionName",
      "outputs": [
        {
          "internalType": "string",
          "name": "",
          "type": "string"
        }
      ],
      "stateMutability": "view",
      "type": "function"
    },
    {
      "inputs": [],
      "name": "getState",
      "outputs": [
        {
          "internalType": "uint256",
          "name": "",
          "type": "uint256"
        }
      ],
      "stateMutability": "view",
      "type": "function"
    },
    {
      "inputs": [],
      "name": "owner",
      "outputs": [
        {
          "internalType": "address",
          "name": "",
          "type": "address"
        }
      ],
      "stateMutability": "view",
      "type": "function"
    },
    {
      "inputs": [],
      "name": "startRegistration",
      "outputs": [],
      "stateMutability": "nonpayable",
      "type": "function"
    },
    {
      "inputs": [],
      "name": "startVote",
      "outputs": [],
      "stateMutability": "nonpayable",
      "type": "function"
    },
    {
      "inputs": [],
      "name": "state",
      "outputs": [
        {
          "internalType": "enum Ballot.State",
          "name": "",
          "type": "uint8"
        }
      ],
      "stateMutability": "view",
      "type": "function"
    },
    {
      "inputs": [],
      "name": "terminateContract",
      "outputs": [],
      "stateMutability": "payable",
      "type": "function"
    },
    {
      "inputs": [],
      "name": "totalVotes",
      "outputs": [
        {
          "internalType": "uint256",
          "name": "",
          "type": "uint256"
        }
      ],
      "stateMutability": "view",
      "type": "function"
    },
    {
      "inputs": [
        {
          "internalType": "uint256",
          "name": "_voteIndex",
          "type": "uint256"
        }
      ],
      "name": "vote",
      "outputs": [],
      "stateMutability": "nonpayable",
      "type": "function"
    },
    {
      "inputs": [
        {
          "internalType": "address",
          "name": "",
          "type": "address"
        }
      ],
      "name": "voters",
      "outputs": [
        {
          "internalType": "bool",
          "name": "authorized",
          "type": "bool"
        },
        {
          "internalType": "bool",
          "name": "voted",
          "type": "bool"
        },
        {
          "internalType": "uint256",
          "name": "vote",
          "type": "uint256"
        }
      ],
      "stateMutability": "view",
      "type": "function"
    }
  ],
  "bytecode": "0x60806040523480156200001157600080fd5b5060405162001db538038062001db5833981810160405281019062000037919062000370565b336000806101000a81548173ffffffffffffffffffffffffffffffffffffffff021916908373ffffffffffffffffffffffffffffffffffffffff16021790555081600190805190602001906200008f929190620000e8565b50603c816200009f919062000405565b42620000ac919062000466565b6005819055506000600660006101000a81548160ff02191690836003811115620000db57620000da620004c3565b5b0217905550505062000557565b828054620000f69062000521565b90600052602060002090601f0160209004810192826200011a576000855562000166565b82601f106200013557805160ff191683800117855562000166565b8280016001018555821562000166579182015b828111156200016557825182559160200191906001019062000148565b5b50905062000175919062000179565b5090565b5b80821115620001945760008160009055506001016200017a565b5090565b6000604051905090565b600080fd5b600080fd5b600080fd5b600080fd5b6000601f19601f8301169050919050565b7f4e487b7100000000000000000000000000000000000000000000000000000000600052604160045260246000fd5b6200020182620001b6565b810181811067ffffffffffffffff82111715620002235762000222620001c7565b5b80604052505050565b60006200023862000198565b9050620002468282620001f6565b919050565b600067ffffffffffffffff821115620002695762000268620001c7565b5b6200027482620001b6565b9050602081019050919050565b60005b83811015620002a157808201518184015260208101905062000284565b83811115620002b1576000848401525b50505050565b6000620002ce620002c8846200024b565b6200022c565b905082815260208101848484011115620002ed57620002ec620001b1565b5b620002fa84828562000281565b509392505050565b600082601f8301126200031a5762000319620001ac565b5b81516200032c848260208601620002b7565b91505092915050565b6000819050919050565b6200034a8162000335565b81146200035657600080fd5b50565b6000815190506200036a816200033f565b92915050565b600080604083850312156200038a5762000389620001a2565b5b600083015167ffffffffffffffff811115620003ab57620003aa620001a7565b5b620003b98582860162000302565b9250506020620003cc8582860162000359565b9150509250929050565b7f4e487b7100000000000000000000000000000000000000000000000000000000600052601160045260246000fd5b6000620004128262000335565b91506200041f8362000335565b9250817fffffffffffffffffffffffffffffffffffffffffffffffffffffffffffffffff04831182151516156200045b576200045a620003d6565b5b828202905092915050565b6000620004738262000335565b9150620004808362000335565b9250827fffffffffffffffffffffffffffffffffffffffffffffffffffffffffffffffff03821115620004b857620004b7620003d6565b5b828201905092915050565b7f4e487b7100000000000000000000000000000000000000000000000000000000600052602160045260246000fd5b7f4e487b7100000000000000000000000000000000000000000000000000000000600052602260045260246000fd5b600060028204905060018216806200053a57607f821691505b60208210811415620005515762000550620004f2565b5b50919050565b61184e80620005676000396000f3fe6080604052600436106101095760003560e01c8063462e91ec1161009557806387dc0c551161006457806387dc0c55146102ef5780638da5cb5b1461031a578063a3ec138d14610345578063b6a5d7de14610384578063c19d93fb146103ad57610109565b8063462e91ec1461026d5780634c0a6af01461029657806359f78468146102ad57806385e8e7a7146102c457610109565b80632a24f46c116100dc5780632a24f46c146101a45780632e6997fe146101cf5780632fd949ca146101fa57806330e7a79c146102045780633477ee2e1461022f57610109565b80630121b93f1461010e5780630d15fd771461013757806310b86695146101625780631865c57d14610179575b600080fd5b34801561011a57600080fd5b5061013560048036038101906101309190611022565b6103d8565b005b34801561014357600080fd5b5061014c6105c9565b604051610159919061105e565b60405180910390f35b34801561016e57600080fd5b506101776105cf565b005b34801561018557600080fd5b5061018e610696565b60405161019b919061105e565b60405180910390f35b3480156101b057600080fd5b506101b96106bf565b6040516101c6919061105e565b60405180910390f35b3480156101db57600080fd5b506101e46106c5565b6040516101f19190611220565b60405180910390f35b6102026107c0565b005b34801561021057600080fd5b50610219610947565b604051610226919061128c565b60405180910390f35b34801561023b57600080fd5b5061025660048036038101906102519190611022565b6109d9565b6040516102649291906112ae565b60405180910390f35b34801561027957600080fd5b50610294600480360381019061028f9190611413565b610a95565b005b3480156102a257600080fd5b506102ab610b9c565b005b3480156102b957600080fd5b506102c2610c63565b005b3480156102d057600080fd5b506102d9610d2a565b6040516102e6919061128c565b60405180910390f35b3480156102fb57600080fd5b50610304610db8565b604051610311919061105e565b60405180910390f35b34801561032657600080fd5b5061032f610dc2565b60405161033c919061149d565b60405180910390f35b34801561035157600080fd5b5061036c600480360381019061036791906114e4565b610de6565b60405161037b9392919061152c565b60405180910390f35b34801561039057600080fd5b506103ab60048036038101906103a691906114e4565b610e2a565b005b3480156103b957600080fd5b506103c2610f22565b6040516103cf91906115da565b60405180910390f35b60028060038111156103ed576103ec611563565b5b600660009054906101000a900460ff16600381111561040f5761040e611563565b5b1461041957600080fd5b600260003373ffffffffffffffffffffffffffffffffffffffff1673ffffffffffffffffffffffffffffffffffffffff16815260200190815260200160002060000160019054906101000a900460ff161561047357600080fd5b600260003373ffffffffffffffffffffffffffffffffffffffff1673ffffffffffffffffffffffffffffffffffffffff16815260200190815260200160002060000160009054906101000a900460ff166104cc57600080fd5b81600260003373ffffffffffffffffffffffffffffffffffffffff1673ffffffffffffffffffffffffffffffffffffffff168152602001908152602001600020600101819055506001600260003373ffffffffffffffffffffffffffffffffffffffff1673ffffffffffffffffffffffffffffffffffffffff16815260200190815260200160002060000160016101000a81548160ff021916908315150217905550600160038381548110610584576105836115f5565b5b906000526020600020906002020160010160008282546105a49190611653565b925050819055506001600460008282546105be9190611653565b925050819055505050565b60045481565b60008060038111156105e4576105e3611563565b5b600660009054906101000a900460ff16600381111561060657610605611563565b5b1461061057600080fd5b60008054906101000a900473ffffffffffffffffffffffffffffffffffffffff1673ffffffffffffffffffffffffffffffffffffffff163373ffffffffffffffffffffffffffffffffffffffff161461066857600080fd5b6001600660006101000a81548160ff0219169083600381111561068e5761068d611563565b5b021790555050565b6000600660009054906101000a900460ff1660038111156106ba576106b9611563565b5b905090565b60055481565b60606003805480602002602001604051908101604052809291908181526020016000905b828210156107b7578382906000526020600020906002020160405180604001604052908160008201805461071c906116d8565b80601f0160208091040260200160405190810160405280929190818152602001828054610748906116d8565b80156107955780601f1061076a57610100808354040283529160200191610795565b820191906000526020600020905b81548152906001019060200180831161077857829003601f168201915b50505050508152602001600182015481525050815260200190600101906106e9565b50505050905090565b60038060038111156107d5576107d4611563565b5b600660009054906101000a900460ff1660038111156107f7576107f6611563565b5b1461080157600080fd5b60008054906101000a900473ffffffffffffffffffffffffffffffffffffffff1673ffffffffffffffffffffffffffffffffffffffff163373ffffffffffffffffffffffffffffffffffffffff161461085957600080fd5b60055442101561086857600080fd5b60005b60038054905081101561090d577f156b5ffaa1a96772b4d324b6a0492ba5c51abe8a2818c38a0d409faddb63578c600382815481106108ad576108ac6115f5565b5b9060005260206000209060020201600001600383815481106108d2576108d16115f5565b5b9060005260206000209060020201600101546040516108f292919061179f565b60405180910390a18080610905906117cf565b91505061086b565b5060008054906101000a900473ffffffffffffffffffffffffffffffffffffffff1673ffffffffffffffffffffffffffffffffffffffff16ff5b606060018054610956906116d8565b80601f0160208091040260200160405190810160405280929190818152602001828054610982906116d8565b80156109cf5780601f106109a4576101008083540402835291602001916109cf565b820191906000526020600020905b8154815290600101906020018083116109b257829003601f168201915b5050505050905090565b600381815481106109e957600080fd5b9060005260206000209060020201600091509050806000018054610a0c906116d8565b80601f0160208091040260200160405190810160405280929190818152602001828054610a38906116d8565b8015610a855780601f10610a5a57610100808354040283529160200191610a85565b820191906000526020600020905b815481529060010190602001808311610a6857829003601f168201915b5050505050908060010154905082565b60008054906101000a900473ffffffffffffffffffffffffffffffffffffffff1673ffffffffffffffffffffffffffffffffffffffff163373ffffffffffffffffffffffffffffffffffffffff1614610aed57600080fd5b6000806003811115610b0257610b01611563565b5b600660009054906101000a900460ff166003811115610b2457610b23611563565b5b14610b2e57600080fd5b60036040518060400160405280848152602001600081525090806001815401808255809150506001900390600052602060002090600202016000909190919091506000820151816000019080519060200190610b8b929190610f35565b506020820151816001015550505050565b6001806003811115610bb157610bb0611563565b5b600660009054906101000a900460ff166003811115610bd357610bd2611563565b5b14610bdd57600080fd5b60008054906101000a900473ffffffffffffffffffffffffffffffffffffffff1673ffffffffffffffffffffffffffffffffffffffff163373ffffffffffffffffffffffffffffffffffffffff1614610c3557600080fd5b6002600660006101000a81548160ff02191690836003811115610c5b57610c5a611563565b5b021790555050565b6002806003811115610c7857610c77611563565b5b600660009054906101000a900460ff166003811115610c9a57610c99611563565b5b14610ca457600080fd5b60008054906101000a900473ffffffffffffffffffffffffffffffffffffffff1673ffffffffffffffffffffffffffffffffffffffff163373ffffffffffffffffffffffffffffffffffffffff1614610cfc57600080fd5b6003600660006101000a81548160ff02191690836003811115610d2257610d21611563565b5b021790555050565b60018054610d37906116d8565b80601f0160208091040260200160405190810160405280929190818152602001828054610d63906116d8565b8015610db05780601f10610d8557610100808354040283529160200191610db0565b820191906000526020600020905b815481529060010190602001808311610d9357829003601f168201915b505050505081565b6000600554905090565b60008054906101000a900473ffffffffffffffffffffffffffffffffffffffff1681565b60026020528060005260406000206000915090508060000160009054906101000a900460ff16908060000160019054906101000a900460ff16908060010154905083565b60008054906101000a900473ffffffffffffffffffffffffffffffffffffffff1673ffffffffffffffffffffffffffffffffffffffff163373ffffffffffffffffffffffffffffffffffffffff1614610e8257600080fd5b6001806003811115610e9757610e96611563565b5b600660009054906101000a900460ff166003811115610eb957610eb8611563565b5b14610ec357600080fd5b6001600260008473ffffffffffffffffffffffffffffffffffffffff1673ffffffffffffffffffffffffffffffffffffffff16815260200190815260200160002060000160006101000a81548160ff0219169083151502179055505050565b600660009054906101000a900460ff1681565b828054610f41906116d8565b90600052602060002090601f016020900481019282610f635760008555610faa565b82601f10610f7c57805160ff1916838001178555610faa565b82800160010185558215610faa579182015b82811115610fa9578251825591602001919060010190610f8e565b5b509050610fb79190610fbb565b5090565b5b80821115610fd4576000816000905550600101610fbc565b5090565b6000604051905090565b600080fd5b600080fd5b6000819050919050565b610fff81610fec565b811461100a57600080fd5b50565b60008135905061101c81610ff6565b92915050565b60006020828403121561103857611037610fe2565b5b60006110468482850161100d565b91505092915050565b61105881610fec565b82525050565b6000602082019050611073600083018461104f565b92915050565b600081519050919050565b600082825260208201905092915050565b6000819050602082019050919050565b600081519050919050565b600082825260208201905092915050565b60005b838110156110df5780820151818401526020810190506110c4565b838111156110ee576000848401525b50505050565b6000601f19601f8301169050919050565b6000611110826110a5565b61111a81856110b0565b935061112a8185602086016110c1565b611133816110f4565b840191505092915050565b61114781610fec565b82525050565b6000604083016000830151848203600086015261116a8282611105565b915050602083015161117f602086018261113e565b508091505092915050565b6000611196838361114d565b905092915050565b6000602082019050919050565b60006111b682611079565b6111c08185611084565b9350836020820285016111d285611095565b8060005b8581101561120e57848403895281516111ef858261118a565b94506111fa8361119e565b925060208a019950506001810190506111d6565b50829750879550505050505092915050565b6000602082019050818103600083015261123a81846111ab565b905092915050565b600082825260208201905092915050565b600061125e826110a5565b6112688185611242565b93506112788185602086016110c1565b611281816110f4565b840191505092915050565b600060208201905081810360008301526112a68184611253565b905092915050565b600060408201905081810360008301526112c88185611253565b90506112d7602083018461104f565b9392505050565b600080fd5b600080fd5b7f4e487b7100000000000000000000000000000000000000000000000000000000600052604160045260246000fd5b611320826110f4565b810181811067ffffffffffffffff8211171561133f5761133e6112e8565b5b80604052505050565b6000611352610fd8565b905061135e8282611317565b919050565b600067ffffffffffffffff82111561137e5761137d6112e8565b5b611387826110f4565b9050602081019050919050565b82818337600083830152505050565b60006113b66113b184611363565b611348565b9050828152602081018484840111156113d2576113d16112e3565b5b6113dd848285611394565b509392505050565b600082601f8301126113fa576113f96112de565b5b813561140a8482602086016113a3565b91505092915050565b60006020828403121561142957611428610fe2565b5b600082013567ffffffffffffffff81111561144757611446610fe7565b5b611453848285016113e5565b91505092915050565b600073ffffffffffffffffffffffffffffffffffffffff82169050919050565b60006114878261145c565b9050919050565b6114978161147c565b82525050565b60006020820190506114b2600083018461148e565b92915050565b6114c18161147c565b81146114cc57600080fd5b50565b6000813590506114de816114b8565b92915050565b6000602082840312156114fa576114f9610fe2565b5b6000611508848285016114cf565b91505092915050565b60008115159050919050565b61152681611511565b82525050565b6000606082019050611541600083018661151d565b61154e602083018561151d565b61155b604083018461104f565b949350505050565b7f4e487b7100000000000000000000000000000000000000000000000000000000600052602160045260246000fd5b600481106115a3576115a2611563565b5b50565b60008190506115b482611592565b919050565b60006115c4826115a6565b9050919050565b6115d4816115b9565b82525050565b60006020820190506115ef60008301846115cb565b92915050565b7f4e487b7100000000000000000000000000000000000000000000000000000000600052603260045260246000fd5b7f4e487b7100000000000000000000000000000000000000000000000000000000600052601160045260246000fd5b600061165e82610fec565b915061166983610fec565b9250827fffffffffffffffffffffffffffffffffffffffffffffffffffffffffffffffff0382111561169e5761169d611624565b5b828201905092915050565b7f4e487b7100000000000000000000000000000000000000000000000000000000600052602260045260246000fd5b600060028204905060018216806116f057607f821691505b60208210811415611704576117036116a9565b5b50919050565b60008190508160005260206000209050919050565b6000815461172c816116d8565b6117368186611242565b94506001821660008114611751576001811461176357611796565b60ff1983168652602086019350611796565b61176c8561170a565b60005b8381101561178e5781548189015260018201915060208101905061176f565b808801955050505b50505092915050565b600060408201905081810360008301526117b9818561171f565b90506117c8602083018461104f565b9392505050565b60006117da82610fec565b91507fffffffffffffffffffffffffffffffffffffffffffffffffffffffffffffffff82141561180d5761180c611624565b5b60018201905091905056fea264697066735822122099a83f6e466cdf2517f9767cf3e402d716ea0101d62a1fa11044a1771a43864564736f6c63430008090033",
  "linkReferences": {},
  "deployedLinkReferences": {}
}